:020000040800F2
:10000000A87B00209D010008E9140008E313000804
:10001000E5140008A9020008311C000800000000D7
:1000200000000000000000000000000011150008A2
:10003000AD02000800000000EB14000813150008D2
:10004000B7010008B7010008B7010008B7010008B0
:10005000B7010008B7010008B7010008B7010008A0
:10006000B7010008B7010008B7010008B701000890
:10007000B7010008B7010008B7010008B701000880
:10008000B7010008B7010008B7010008B701000870
:10009000B7010008B7010008B7010008B701000860
:1000A000B7010008B7010008B7010008B701000850
:1000B0005D160008B7010008B7010008B701000885
:1000C000B7010008B7010008B7010008B701000830
:1000D000B7010008B7010008111C0008211C000826
:1000E000B7010008B7010008B7010008B701000810
:1000F000B7010008B7010008B7010008B701000800
:10010000B7010008B7010008B7010008B7010008EF
:10011000B7010008B7010008B7010008B7010008DF
:10012000B7010008B7010008B7010008B7010008CF
:10013000B7010008B7010008B7010008B7010008BF
:10014000B7010008B7010008B7010008B7010008AF
:10015000B7010008B7010008B7010008B70100089F
:10016000B7010008B7010008B7010008B70100088F
:10017000B7010008B7010008B7010008000000003F
:10018000B7010008B7010008DFF80CD000F068F8EC
:100190000048004735210008A87B0020064880471A
:1001A00006480047FEE7FEE7FEE7FEE7FEE7FEE75C
:1001B000FEE7FEE7FEE7FEE7F91500088901000803
:1001C0002DE9F05F0546002092469B46884606468C
:1001D000814640241BE0284641464746224600F01F
:1001E0002FF853465A46C01A914110D3114618466B
:1001F000224600F016F82D1A67EB01084F462246FA
:100200000120002100F00DF817EB00094E41201EDF
:10021000A4F10104DFDC484631462A464346BDE8E6
:10022000F09F202A04DB203A00FA02F100207047F8
:100230009140C2F1200320FA03F319439040704724
:10024000202A04DB203A21FA02F00021704721FA2B
:1002500002F3D040C2F12002914008431946704792
:10026000064C074D06E0E06840F0010394E8070003
:1002700098471034AC42F6D3FFF78AFFB421000848
:10028000D421000806490988402907DA04490A8868
:100290000988491C024B19800249885470470000A4
:1002A000140000206403002000BFFEE770470146F1
:1002B00091F83500022803D080204865012070475E
:1002C000052081F835000868006820F001000A6800
:1002D00010600020F3E70000F8B502460B46002549
:1002E000002400200021DCE0012606FA01F51E684A
:1002F00006EA0504AC4273D15E68022E02D05E6845
:10030000122E13D1CF0802F1200656F827004E070F
:10031000F70E0F26BE40B0434F07FF0E1E69BE40CA
:100320003043CF0802F1200646F8270010684F003E
:100330000326BE40B0431E7906F003064F00BE40C0
:10034000304310605E68012E08D05E68022E05D032
:100350005E68112E02D05E68122E13D190684F0095
:100360000326BE40B0434F00DE68BE40304390607D
:10037000506801268E40B0431E79C6F300168E40A9
:1003800030435060D0684F000326BE40B0434F005A
:100390009E68BE403043D0605E6806F08056B6F17D
:1003A000805F7DD100BF00260096404E366846F43F
:1003B00080463E4F3E603E46366806F480460096D4
:1003C00000BF00BF3A4E8F0856F827008E07370F40
:1003D0000F26BE40B043374EB24202D1002624E081
:1003E0005EE0354EB24201D101261EE0334EB242EC
:1003F00001D1022619E0324EB24201D1032614E0A7
:10040000304EB24201D104260FE02F4EB24201D14C
:1004100005260AE02D4EB24201D1062605E02C4EFB
:10042000B24201D1072600E008268F073F0FBE40E9
:1004300030431F4E8F0846F82700264E3068A043F1
:100440005E6806F48036B6F5803F00D12043214E29
:100450003060361D3068A0435E6806F40036B6F59D
:10046000003F00D120431B4E361D3060361D3068E2
:10047000A0435E6806F48016B6F5801F00D12043C5
:10048000144E08363060361D3068A0435E6806F4AE
:100490000016B6F5001F00D120430E4E0C3630601A
:1004A000491C1029FFF420AFF8BD00004438024079
:1004B00008380140000002400004024000080240E9
:1004C000000C0240001002400014024000180240DC
:1004D000001C0240003C01400148006870470000D9
:1004E00004000020034800680349097808440149D2
:1004F00008607047040000200C00002010B50D4873
:10050000006840F400700B4908600846006840F439
:10051000806008600846006840F48070086003202E
:1005200000F0EAF8002000F007F800F049F8002099
:1005300010BD0000003C024070B588B004460025A4
:100540000026002221461C2000F098F81C2000F014
:1005500085F800BF002001901648006840F00100B7
:10056000144908600846006800F00100019000BFCF
:1005700000BF02A903A800F093F900F0B9F9450003
:100580000D48B5FBF0F0461E4FF080400B49086067
:1005900040F2E7310948C160466000210161816095
:1005A00000F077FC20B9054800F08EFC08B070BD63
:1005B0000120FBE74038024040420F00A800002025
:1005C00008B500BF002000902348006840F4804038
:1005D000214908600846006800F48040009000BF90
:1005E00000BF00BF00200090081F006840F080504E
:1005F000091F08600846006800F08050009000BFA6
:1006000000BF032000F078F8002211466FF00B00C5
:1006100000F034F8002211466FF00A0000F02EF8C6
:10062000002211466FF0090000F028F80022114660
:10063000501F00F023F800221146101F00F01EF892
:1006400000221146901E00F019F800221146501E9B
:1006500000F014F808BD0000443802400146084686
:10066000002809DB00F01F0301229A4043099B0088
:1006700003F1E023C3F8002100BF70472DE9F05FCC
:1006800080460D461646002701F0E6FA0746394631
:100690002A46334601F00700C0F1070ABAF1040FF9
:1006A00002D94FF0040A01E0C0F1070AD14600F177
:1006B000040ABAF1070F02D24FF0000A01E0A0F1DC
:1006C000030AD4464FF0010A0AFA09FAAAF1010A0C
:1006D0000AEA020A0AFA0CFA4FF0010B0BFA0CFBB9
:1006E000ABF1010B0BEA030B4AEA0B04214640462F
:1006F00001F0BAFABDE8F09F00BF00F00702064B18
:1007000019684FF6FF031940044B0B4343EA0221DB
:10071000014B196000BF70470CED00E00000FA05C6
:1007200070B504460D460CB9012070BD58480068EC
:1007300000F00F00A84209D255490D700846006824
:1007400000F00F00A84201D00120EEE7207800F071
:10075000020002281DD1207800F00400042805D1F1
:100760004C48006840F4E0504A490860207800F0A6
:100770000800082805D14748006840F46040454912
:1007800008604448006820F0F000A168084341492F
:100790000860207800F00100A8B36068012807D144
:1007A0003C4808380068C0F34040B8B90120BCE7B5
:1007B0006068022802D06068032807D135480838ED
:1007C0000068C0F3406048B90120AEE731480838FE
:1007D0000068C0F3400008B90120A6E72D48006872
:1007E00020F00300616808432A490860FFF774FE9F
:1007F000064609E0FFF770FE801B41F2883188420F
:1008000002D9032091E707E02248006800F00C00BD
:100810006168B0EB810FEDD11D48006800F00F005A
:10082000A84209D91A490D700846006800F00F0067
:10083000A84201D0012078E7207800F004000428C5
:1008400007D11448006820F4E050E16808431149DA
:100850000860207800F00800082808D10D480068DA
:1008600020F46040216940EAC1000A49086000F0B4
:100870005FF808490968C1F30311074A515CC84091
:10088000064908600020FFF757FE00204DE70000F2
:10089000003C0240083802409C2100081000002063
:1008A0000F2202600D4A126802F0030242600B4AF6
:1008B000126802F0F0028260084A126802F4E05204
:1008C000C260064A126802F46042D2080261044A19
:1008D000126802F00F020A607047000008380240F8
:1008E000003C0240014800687047000010000020F2
:1008F00000B5FFF7F7FF04490968C1F38221034AF5
:10090000515CC84000BD000008380240AC2100081E
:1009100000B5FFF7E7FF04490968C1F34231034A14
:10092000515CC84000BD000008380240AC210008FE
:100930002DE9F047002400250026A146254800683F
:1009400000F00C0020B1042805D008283AD105E0B9
:10095000DFF8849039E0DFF8849036E01D48001F0E
:10096000006800F03F041B48001F006800F480008E
:1009700078B11A481749091F0968C1F38811A0FB0B
:1009800001700146224600233846FFF719FC054650
:100990000EE011480F49091F0968C1F38811A0FB37
:1009A00001700146224600233846FFF709FC054640
:1009B0000848001F0068C0F30140401C4600B5FB1A
:1009C000F6F902E0DFF8109000BF00BF4846BDE82E
:1009D000F0870000083802400024F40000127A007A
:1009E000F8B504460CB90120F8BD207800F00100EC
:1009F000002874D0F948006800F00C0004280DD0DD
:100A0000F648006800F00C00082813D1F348001FD6
:100A1000006800F48000B0F5800F0BD1EF48083873
:100A20000068C0F34040002859D06068002856D1C3
:100A30000120D9E700BF6068B0F5803F08D1E748E2
:100A40000838006840F48030E449083908601EE046
:100A50006068B0F5A02F0DD1E0480838006840F478
:100A60008020DE49083908600846006840F480307C
:100A700008600CE0D9480838006820F48030D74975
:100A8000083908600846006820F48020086000BF2C
:100A9000606890B1FFF720FD054606E0FFF71CFDFA
:100AA000401B642801D903209EE7CC480838006821
:100AB000C0F340400028F1D011E0FFF70DFD0546DE
:100AC00006E0FFF709FD401B642801D903208BE7EE
:100AD000C24808380068C0F340400028F1D12078AF
:100AE00000F0020002285FD1BC48006800F00C0052
:100AF00058B1BA48006800F00C0008281CD1B7486B
:100B0000001F006800F48000B0B9B44808380068DD
:100B1000C0F3400020B1E068012801D0012063E764
:100B2000AE480838006820F0F800216940EAC100AA
:100B3000AA490839086037E0E06800B30120A849F5
:100B40000860FFF7C9FC054606E0FFF7C5FC401B3F
:100B5000022801D9032047E7A04808380068C0F3FD
:100B600040000028F1D09D480838006820F0F800C7
:100B7000216940EAC10099490839086014E0002061
:100B800097490860FFF7A8FC054606E0FFF7A4FCBC
:100B9000401B022801D9032026E790480838006846
:100BA000C0F340000028F1D1207800F008000828A8
:100BB0002CD16069A8B101208A490860FFF78CFC3C
:100BC000054606E0FFF788FC401B022801D90320F8
:100BD0000AE782486C300068C0F340000028F1D07A
:100BE00014E000207F490860FFF776FC054606E028
:100BF000FFF772FC401B022801D90320F4E6774876
:100C00006C300068C0F340000028F1D1207800F07B
:100C10000400042870D1002670483830006800F0C5
:100C2000805090B900BF002000906C4838300068B8
:100C300040F080506949383108600846006800F08B
:100C40008050009000BF00BF01266748006800F494
:100C50008070B0B96448006840F4807062490860F0
:100C6000FFF73AFC054606E0FFF736FC401B02287A
:100C700001D90320B8E65C48006800F480700028C1
:100C8000F2D000BFA068012808D15448683000683D
:100C900040F001005149683108601DE0A068052856
:100CA0000DD14E486830006840F004004B4968316F
:100CB00008600846006840F0010008600CE0474802
:100CC0006830006820F00100444968310860084637
:100CD000006820F00400086000BFA068A8B1FFF71A
:100CE000FBFB054609E0FFF7F7FB401B41F28831AB
:100CF000884202D9032077E626E038486830006849
:100D0000C0F340000028EED013E0FFF7E5FB0546F6
:100D100008E0FFF7E1FB401B41F28831884201D92E
:100D2000032061E62D4868300068C0F340000028C9
:100D3000EFD1012E07D129483830006820F08050CB
:100D400026493831086000BFA069B8B3234800685D
:100D500000F00C0008285ED0A069022846D10020CF
:100D60001F490866FFF7B8FB054606E0FFF7B4FB2E
:100D7000401B022801D9032036E6184808380068CD
:100D8000C0F340600028F1D1D4E907010843616A4B
:100D900040EA81110122A06AC2EB500041EA004101
:100DA0002C20005D41EA00600C49091F0860012009
:100DB0000B490866FFF790FB054607E02DE0FFF7BB
:100DC0008BFB401B022801D903200DE6034808389D
:100DD0000068C0F340600028F1D01EE008380240EF
:100DE00000004742800E47420070004000200C493E
:100DF0000866FFF771FB054606E0FFF76DFB401B39
:100E0000022801D90320EFE506480068C0F34060DE
:100E10000028F2D101E00120E6E50020E4E5000031
:100E20000000474200380240042808D14FF0E0217A
:100E3000096941F004014FF0E022116107E04FF031
:100E4000E021096921F004014FF0E02211617047AF
:100E5000704770B504462546681EB0F1807F01D307
:100E600001200FE0681E4FF0E02148610F214FF094
:100E7000FF3000F0F9FE00204FF0E02188610720EC
:100E80000861002070BD10B5FFF7E2FF10BD70478C
:100E9000704710B504460CB9012010BD94F8390014
:100EA00028B9002084F83800204600F00CF8022011
:100EB00084F83900211D206800F0D8FB012084F857
:100EC00039000020E9E7704701460868C06840F033
:100ED00001000A68D0600868006840F001000A68F4
:100EE000106000207047704710B504462068006904
:100EF000C0F34000D8B12068C068C0F34000B0B172
:100F00006FF0020021680861012020762068806966
:100F100000F0030018B12046FFF7E5FF05E020468A
:100F200000F0ADF8204600F0ABF8002020762068F5
:100F30000069C0F38000D8B12068C068C0F38000A9
:100F4000B0B16FF0040021680861022020762068AB
:100F5000806900F4407018B12046FFF7C4FF05E037
:100F6000204600F08CF8204600F08AF80020207619
:100F700020680069C0F3C000D8B12068C068C0F321
:100F8000C000B0B16FF0080021680861042020762D
:100F90002068C06900F0030018B12046FFF7A3FFE6
:100FA00005E0204600F06BF8204600F069F80020CC
:100FB000207620680069C0F30010D8B12068C068AE
:100FC000C0F30010B0B16FF0100021680861082074
:100FD00020762068C06900F4407018B12046FFF701
:100FE00082FF05E0204600F04AF8204600F048F86D
:100FF000002020762068006900F0010058B12068C8
:10100000C06800F0010030B16FF001002168086194
:10101000204600F036F820680069C0F3C01058B1CF
:101020002068C068C0F3C01030B16FF08000216844
:1010300008612046FFF72BFF20680069C0F380108D
:1010400058B12068C068C0F3801030B16FF0400024
:1010500021680861204600F01DF820680069C0F38F
:10106000401058B12068C068C0F3401030B16FF034
:101070002000216808612046FFF70AFF10BD704775
:10108000704710B504462068B0F1804F01D1FFF7DA
:1010900029FA10BD704770472DE9F04704462068D3
:1010A00005682068C668206847694FF00008C14697
:1010B00005F00F08B8F1000F0AD105F0200038B193
:1010C00006F0200020B1204600F06CFBBDE8F08760
:1010D000B8F1000F6DD007F0010018B906F4907058
:1010E000002866D005F0010030B106F4807018B118
:1010F000E06B40F00100E06305F0040030B107F060
:10110000010018B1E06B40F00200E06305F002005E
:1011100030B107F0010018B1E06B40F00400E0636B
:1011200005F0080030B107F0010018B1E06B40F0A5
:101130000800E063E06B68B305F0200028B106F01A
:10114000200010B1204600F02DFB20684069C0F35C
:101150008019E06B00F0080010B9B9F1000F22D03F
:10116000204600F0FFFA2068406900F04000B0B16E
:101170002068406920F0400021684861606B50B1F0
:101180001748616B0865606BFFF791F810B1606BF1
:10119000016D88470CE02046FFF77DFF08E0204600
:1011A000FFF779FF04E02046FFF775FF0020E063BA
:1011B0008CE705F0800030B106F0800018B12046C1
:1011C00000F0F2FC82E705F0400030B106F040008C
:1011D00018B1204600F0D6FA78E700BF76E70000A5
:1011E0005117000810B504460CB9012010BDA069C4
:1011F00000B100E000BF94F8390028B9002084F85D
:101200003800204600F028F8242084F839002068AF
:10121000C06820F400502168C860204600F010FB30
:101220002068006920F490402168086120684069C6
:1012300020F02A00216848612068C06840F400500E
:101240002168C8600020E063202084F8390084F819
:101250003A000020CAE7000010B586B004462C49C9
:101260002068884226D100BF0020009029480068ED
:1012700040F40030274908600846006800F4003058
:10128000009000BF00BF0C200190022002900120BE
:101290000390032004900720059001A91E48FFF742
:1012A0001BF8002211462620FFF7E8F92620FFF759
:1012B000D5F92AE019492068884226D100BF0020CC
:1012C00000901448006840F48020124908600846E5
:1012D000006800F48020009000BF00BF4FF4406021
:1012E0000190022002900120039003200490072027
:1012F000059001A90A48FEF7EFFF002211462720BA
:10130000FFF7BCF92720FFF7A9F906B010BD0000D0
:1013100000440040403802400000024000480040C5
:101320000004024010B5034693F83A00202829D162
:1013300001B10AB9012010BD00BF93F8380001289F
:1013400001D10220F7E7012083F8380000BF99623D
:101350009A85DA850020D863222083F83A0000BFFE
:10136000002083F8380000BF1868406940F0010091
:101370001C6860611868C06840F490701C68E06088
:101380000020D8E70220D6E710B504460F492068B0
:1013900088420FD101220E490E48FFF7C3FF0C49C6
:1013A000891E887800F0A2F80949891E8878FEF71E
:1013B00069FF09E008492068884205D101220449F3
:1013C000491C0648FFF7AEFF10BD00000044004076
:1013D0009E0000201C000020004800405C0000200F
:1013E000704700BFFEE7000008B500BF0020009076
:1013F0001548006840F080001349086008460068FE
:1014000000F08000009000BF00BF00BF00200090EF
:101410000846006840F0010008600846006800F0D7
:101420000100009000BF00BF00BF002000900846F0
:10143000006840F0020008600846006800F0020002
:10144000009000BF00BF08BD3038024010B50C4806
:101450000C4908604FF4165048600021094881602B
:10146000C16001610C21416100218161C161FFF70F
:10147000B9FE18B1442104A000F0DCFB10BD00004F
:10148000004400401C0000202E2E2F5372632F7545
:10149000736172742E63000010B50C480C4908602B
:1014A0004FF416504860002109488160C160016115
:1014B0000C21416100218161C161FFF793FE18B1E8
:1014C000572104A000F0B6FB10BD0000004800400A
:1014D0005C0000202E2E2F5372632F75736172747F
:1014E0002E63000000BFFEE7704770470649098879
:1014F000B1F5167F07DA04490A880988491C024BAE
:101500001980024988547047000000200C01002017
:10151000704710B5FFF7B7FC10BD000010B592B0D2
:1015200000BF002000902E48006840F080502C49F9
:1015300008600846006800F08050009000BF00BFBF
:1015400000BF002000902748006840F480402549F3
:1015500008600846006800F48040009000BF00BFAB
:10156000012006900004079002200C9041050D9187
:1015700004210E91C0210F9104211091119106A810
:10158000FFF72EFA20B140F2154117A000F052FBF0
:101590000F20019002200290002003904FF4A050F1
:1015A00004900590032101A8FFF7BAF820B140F29A
:1015B00023410DA000F03EFBFFF794F94FF47A7140
:1015C000B0FBF1F42046FFF744FC0420FFF72CFCAD
:1015D00000221146501EFFF751F812B010BD000056
:1015E00040380240007000402E2E2F5372632F6D42
:1015F00061696E2E630000001448006840F47000BA
:10160000124908601248006840F001001049086063
:1016100000200F49083108600D4800680D49084056
:101620000B4908600C48091D0860081F006820F479
:101630008020091F0860002005490C3108604FF028
:1016400000600249803908607047000088ED00E0C2
:1016500000380240FFFFF6FE1030002410B50248AB
:10166000FFF742FC10BD0000A80000200022026825
:101670002C4B98420ED0B0F1804F0BD02A4B9842A1
:1016800008D02A4B984205D0294B984202D0294BCA
:10169000984201D1012300E000231BB122F0700227
:1016A0004B681A431F4B984220D0B0F1804F1DD099
:1016B0001D4B98421AD01D4B984217D01C4B984294
:1016C00014D01C4B984211D01B4B98420ED01B4B90
:1016D00098420BD01A4B984208D01A4B984205D02A
:1016E000194B984202D0194B984201D1012300E0D6
:1016F00000231BB122F44072CB681A4302608B684E
:10170000C3620B688362074B984202D0094B984230
:1017100001D1012300E000230BB10B690363012316
:101720004361704700000140000400400008004091
:10173000000C004000040140004001400044014012
:101740000048014000180040001C004000200040FC
:1017500070B50546AC6B0020E085E0842046FFF7BD
:101760009AFC70BD0168C96821F490710268D1606B
:101770000168496921F0010102685161202180F866
:101780003A10704710B504462068C06820F0400049
:101790002168C860202084F839002046FFF720FE29
:1017A000002010BD70B5044694F83A00222844D1B8
:1017B000A068B0F5805F13D1A56A206940B92068A0
:1017C0004068C0F308002880A06A801CA06219E06D
:1017D00020684068C0B22880A06A401CA06211E066
:1017E000206938B920684068C1B2A26A501CA06262
:1017F000117007E02068406800F07F01A26A501C69
:10180000A0621170E08D401E80B2E08598B920681A
:10181000C06820F490702168C8602068406920F09A
:10182000010021684861202084F83A002046FFF733
:10183000ABFD002070BD0020FCE70220FAE70000AD
:101840002DE9F041044600252068056925F440553E
:10185000E0680543206805612068C56849F20C60AE
:1018600085432169A068084361690843E169084329
:1018700005432068C5602068456925F44075A06966
:10188000054320684561E069B0F5004F7ED1C44949
:101890002068884203D0C349206888425DD1FFF7A1
:1018A00037F800EBC00101EB001061684900B0FBA4
:1018B000F1F06421B0FBF1F00601FFF729F800EB2D
:1018C000C00101EB001061684900B0FBF1F7FFF7C0
:1018D0001FF800EBC00101EB001061684900B0FB8C
:1018E000F1F06421B0FBF1F000EBC00101EB00105E
:1018F000A7EB8000322101EBC0006421B0FBF1F0C6
:1019000000F0F80006EB4006FFF702F800EBC0011C
:1019100001EB001061684900B0FBF1F7FEF7F8FF3A
:1019200000EBC00101EB001061684900B0FBF1F071
:101930006421B0FBF1F000EBC00101EB0010A7EB5C
:101940008000322101EBC0006421B0FBF1F000F017
:10195000070030442168886020E1FEF7C9FF00EBF2
:10196000C00101EB001061684900B0FBF1F0642197
:10197000B0FBF1F00601FEF7BBFF00EBC00101EB8D
:10198000001061684900B0FBF1F700E045E0FEF7A8
:10199000AFFF00EBC00101EB001061684900B0FB34
:1019A000F1F06421B0FBF1F000EBC00101EB00109D
:1019B000A7EB8000322101EBC0006421B0FBF1F005
:1019C00000F0F80006EB4006FEF792FF00EBC001C6
:1019D00001EB001061684900B0FBF1F7FEF788FFEA
:1019E00000EBC00101EB001061684900B0FBF1F0B1
:1019F0006421B0FBF1F000EBC00101EB0010A7EB9C
:101A00008000322101EBC0006421B0FBF1F000F056
:101A10000700304421688860C0E06149206888423E
:101A200003D06049206888425CD1FEF771FF00EB6B
:101A3000C00101EB001061688900B0FBF1F6FEF710
:101A400067FF00EBC00101EB001061688900B0FB8B
:101A5000F1F06421B0FBF1F000EBC00101EB0010EC
:101A6000A6EB8000322101EB00106421B0FBF1F005
:101A700000F0F006FEF74CFF00EBC00101EB001098
:101A800061688900B0FBF1F06421B0FBF1F006EB76
:101A90000016FEF73DFF00EBC00101EB001061688E
:101AA0008900B0FBF1F7FEF733FF00EBC00101EB5B
:101AB000001061688900B0FBF1F06421B0FBF1F027
:101AC00000EBC00101EB0010A7EB8000322101EB1D
:101AD00000106421B0FBF1F000F00F0030442168E9
:101AE00088605BE0FEF704FF00EBC00101EB001033
:101AF00061688900B0FBF1F6FEF7FAFE00EBC00169
:101B000001EB001061688900B0FBF1F06421B0FBCB
:101B1000F1F000EBC00101EB0010A6EB80003221D8
:101B200001EB00106421B0FBF1F000F0F006FEF7CD
:101B3000DFFE00EBC00101EB001061688900B0FB23
:101B4000F1F06421B0FBF1F006EB0016FEF7D0FED9
:101B500000EBC00101EB001061688900B0FBF1F7F8
:101B6000FEF7C6FE00EBC00101EB001061688900C2
:101B7000B0FBF1F06421B0FBF1F000EBC00101EB30
:101B80000010A7EB8000322101EB00106421B0FBB4
:101B9000F1F000F00F00304421688860BDE8F0816A
:101BA0000010014000140140014691F8390021283D
:101BB0002CD18868B0F5805F0FD10A6A1088C0F315
:101BC00008000B685860086918B9086A801C086228
:101BD00009E0086A401C086205E00B6A581C0862AC
:101BE00018780B685860C88C401E80B2C88458B9F9
:101BF0000868C06820F080000B68D8600868C0687A
:101C000040F040000B68D860002070470220FCE7DD
:101C100010B50248FFF740FA10BD00001C0000207C
:101C200010B50248FFF738FA10BD00005C00002034
:101C300000BFFEE700BFFEE70FB4054B10B503A9D8
:101C4000044A029800F034F810BC5DF814FB000060
:101C5000152100081800002002480068C0F3022087
:101C6000704700000CED00E010B5002804DB0A0707
:101C7000130E054A135406E00A07140E034A00F037
:101C80000F031B1FD45410BD00E400E018ED00E06A
:101C900002E008C8121F08C1002AFAD17047704735
:101CA000002001E001C1121F002AFBD17047000093
:101CB0002DE9FF4F8DB00F460546002606E025288A
:101CC0000BD0DDE90F1290476D1C761C2878002898
:101CD000F5D111B03046BDE8F08F0024A246A146F0
:101CE0000122EC4900E0044315F8013F203B02FAD1
:101CF00003F00842F7D128782A2810D06FF02F027D
:101D00002878A0F13001092914D80AEB8A0102EBE6
:101D1000410144F0020400EB010A6D1CF0E701CF21
:101D20005FEA000A03D544F40054CAF1000A44F003
:101D300002046D1C28782E2817D115F8010F44F0E5
:101D400004042A280ED06FF02F022878A0F1300169
:101D500009290AD809EB890102EB410100EB0109CD
:101D60006D1CF2E757F8049B6D1C28786C280FD087
:101D700006DC4C2817D068280DD06A2814D104E05E
:101D8000742810D07A280FD10DE044F400140AE032
:101D900044F4801401E044F440146978814202D193
:101DA00004F580146D1C6D1C2A786E2A1FD00CDC83
:101DB000632A31D004DC002A8BD0582A11D1A3E049
:101DC000642A68D0692A0CD165E0732A2ED004DC1D
:101DD0006F2A73D0702A04D19BE0752A6FD0782ABD
:101DE0006ED01046DDE90F129047761C50E1C4F327
:101DF0000250022806D0032809D0042801CF09D0B8
:101E0000066045E101CFF117C0E9006140E101CF73
:101E100006803DE106703BE117F8040B8DF80000E9
:101E200000208DF80100EB46012003E057F804BBC9
:101E30004FF0FF3061074FF0000102D40DE008F1D0
:101E40000101884649450FDA8045F8DB1BF8081088
:101E50000029F4D108E008F1010188468142FADB4B
:101E60001BF808100029F6D1DDE90F23AAEB0800C2
:101E70008146214600F036F9304400EB080604E0C4
:101E8000DDE90F121BF8010B9047B8F10108F7D2FA
:101E900021464846F7E00A21C4F302534FF0000BF5
:101EA0000891022B04D001CFC117032B09D00AE0FF
:101EB000FF1D27F00707F7E8020108E032E01FE006
:101EC00020E000B2C117042B01D140B2C117031E9C
:101ED00071F1000307DA4FF0000CD0EB0C006CEB53
:101EE00001012D2302E0230504D52B238DF8243096
:101EF000012303E0E30701D02023F7E7984658E0E9
:101F00000A2110E010210EE010204FF0000B089085
:101F10000CE010214FF0000B44F004044FF00809CE
:101F2000089103E008214FF0000B0891C4F302531D
:101F3000022B04D001CF0021032B06D006E0FF1DA9
:101F400027F00707F7E8020103E080B2042B00D175
:101F5000C0B24FF0000823072BD5702A07D0DDF858
:101F600020C08CF0100C5CEA0B0C05D00EE0402376
:101F70008DF82430012308E050EA010306D0302315
:101F80008DF824308DF8252002239846DDF820C0F6
:101F90008CF0080C5CEA0B0C0BD150EA010301D168
:101FA000630706D530238DF824304FF00108A9F1DE
:101FB0000109582A04D038A20B9208AA0A920BE011
:101FC0003AA2F9E75B46089AFEF7FAF80B9B9B5C8E
:101FD0000A9A521E0A92137050EA0102F2D10A982C
:101FE000ADEB000000F1200B600702D524F4803433
:101FF00001E04FF00109D94502DDA9EB0B0000E03B
:10200000002000EB0B0141440890AAEB010AE00319
:1020100006D4DDE90F232146504600F063F806445C
:102020004FF0000908E009A911F80900DDE90F12D5
:10203000904709F10109761CC145F4DBE0030CD59A
:10204000DDE90F232146504600F04CF8064404E039
:10205000DDE90F1230209047761C0899481E089041
:102060000029F5DC08E00A980A990078491C0A91D1
:10207000DDE90F129047761CBBF10001ABF1010BBB
:10208000F1DC21465046DDE90F2300F019F8064443
:102090006D1C1BE6092801003031323334353637E8
:1020A00038396162636465660000000030313233A4
:1020B0003435363738394142434445460000000044
:1020C0002DE9F041044600251E461746880404D435
:1020D00005E039462020B0476D1C641EF9D528461E
:1020E000BDE8F0812DE9F041044600251E469046EA
:1020F000C80301D5302700E02027880404D505E077
:1021000041463846B0476D1C641EF9D52846BDE8E7
:10211000F081000000BF064A12681268C2F3801204
:10212000002AF8D0C2B2024B1B685A607047000008
:102130005C00002008B5FEF7E1F900200090FFF7F1
:10214000EDF9FFF751F9FFF781F9FFF7A5F9012242
:1021500007490848FFF7E6F801220549491C0648E7
:10216000FFF7E0F805A0FFF767FD00BFFEE70000FE
:102170009E0000201C0000205C0000202020415414
:102180002B4254504F5745523D3120746573742093
:102190006F6B200D0A200D0A0000000000000000F7
:1021A0000000000001020304060708090000000007
:1021B00001020304D4210008000000201C000000DC
:1021C000901C0008F02100081C0000208C7B0000FF
:1021D000A01C00080000000000000000100000002B
:1021E000010000000024F4000000000000000000D6
:040000050800018965
:00000001FF
